:100000000C9434000C9448000C9446000C94460068
:100010000C9446000C9446000C9446000C94460048
:100020000C9446000C9446000C9446000C94460038
:100030000C9446000C9446000C9446000C94460028
:100040000C9446000C9446000C9446000C94460018
:100050000C9446000C9446000C9446000C94460008
:100060000C9446000C94460011241FBECFEFD8E03C
:10007000DEBFCDBF11E0A0E0B1E001C01D92A6300F
:10008000B107E1F70E9492000C94A4000C940000C8
:100090001F920F920FB60F9211248F939F9380910E
:1000A00000019091010184369105F4F4019690933A
:1000B0000101809300014A9B0AC080910301909145
:1000C00004010196909304018093030106C01092ED
:1000D000040110920301109202018FE99FE0019741
:1000E000F1F700C00000DBCF109201011092000177
:1000F0008091030190910401039718F081E08093AF
:10010000020180910201882331F0809105018F5F07
:100110008093050185B99F918F910F900FBE0F902D
:100120001F901895529884B18FEF84B915B88091BB
:10013000690082608093690080916900816080938A
:0C01400069007894E89AFFCFF894FFCF94
:00000001FF
