:100000000C9434000C9449000C9449000C94490061
:100010000C9449000C9449000C9449000C9449003C
:100020000C9449000C9449000C9449000C9449002C
:100030000C9449000C9449000C9449000C9449001C
:100040000C9449000C9449000C9449000C9449000C
:100050000C9449000C9449000C9449000C944900FC
:100060000C9449000C94490011241FBECFEFD8E036
:10007000DEBFCDBF11E0A0E0B1E0EEE8F3E002C0EA
:1000800005900D92A031B107D9F70E947A010C9426
:10009000C5010C940000CF93DF93EB0181309105F3
:1000A00029F0029741F48AE00E940A01CE01DF9113
:1000B000CF910C941E01DF91CF910895CF93DF93E0
:1000C0001F92CDB7DEB78130910539F0029759F410
:1000D0008AE069830E940A016981862F0F90DF916F
:1000E000CF910C940A010F90DF91CF910895429A1D
:1000F00085E08A95F1F7000042980895CF93DF9349
:100100001F92CDB7DEB7662311F0409A01C0409828
:100110004198529A539A549A559A5D985C985B9874
:100120005A9887FD5D9A86FD5C9A85FD5B9A84FDF1
:100130005A9A89830E9477005D985C985B985A98D8
:10014000898183FD5D9A82FD5C9A81FD5B9A80FDC9
:100150005A9A0E9477005A9A5B9A5C9A5D9A0F901D
:10016000DF91CF9108954098419A529853985498AE
:100170005598429A85E08A95F1F700004A9902C0A5
:1001800080E001C080E14B9980624C9980644D9978
:100190008068429895E09A95F1F70000429A95E0C0
:1001A0009A95F1F700004A9981604B9982604C99C9
:1001B00084604D998860429808950E94B30087FD3D
:1001C000FCCF85E18A95F1F700000C94B300CF9342
:1001D000C82F0E94DD0060E08C2FCF910C947E0030
:1001E000CF93C82F0E94DD0061E08C2FCF910C943B
:1001F0007E00611102C0805801C080540C94E70059
:100200000E94DD0090E0089581E00C94E70082E018
:100210000C94E700CF93C82F0E94DD00CA3049F448
:10022000803410F480E401C080E08058CF910C94B9
:10023000E70061E08C2FCF910C947E00CF93DF9389
:10024000EC018991882319F00E940A01FACFDF910D
:10025000CF910895CF93DF93FC018491EF01219614
:10026000882321F00E940A01FE01F7CFDF91CF9190
:100270000895CF93C82F389A399A3A9A529A539A36
:10028000549A559A8FEF99EF0197F1F700C000004B
:100290005B9A5A9A0E9477008FE19EE40197F1F7EA
:1002A00000C000000E9477008FEF90E00197F1F707
:1002B00000C000000E9477008FEF90E00197F1F7F7
:1002C00000C000005A980E9477008FEF90E00197DD
:1002D000F1F700C0000088E20E94E70088E00E9479
:1002E000E7000E94040186E00E94E7008C2FCF9176
:1002F0000C94E700CF93DF93CDB7DEB760970FB6CE
:10030000F894DEBF0FBECDBF80E1E0E0F1E0DE019A
:10031000119601900D928A95E1F78CE00E943901C7
:100320000E940401CE0101960E941E018AE00E94F3
:100330000A01CE0101960E941E012FEF83E294EF85
:10034000215080409040E1F700C000000E9404016D
:1003500081E60E940A018AE00E940A0181E60E9469
:100360000A012FEF83E294EF215080409040E1F7A3
:1003700000C0000080E090E060960FB6F894DEBF09
:0E0380000FBECDBFDF91CF910895F894FFCF4F
:10038E00456E74657220746865206B6579203A003D
:00000001FF
